:020000040800F2
:100000000000022081800008D1800008D180000813
:10001000D1800008D1800008D180000800000000D5
:10002000000000000000000000000000D180000877
:10003000D180000800000000D1800008757A000817
:10004000D1800008D1800008D1800008D18000084C
:10005000D1800008D1800008D1800008D18000083C
:10006000D1800008D1800008D1800008D18000082C
:10007000D1800008D1800008D1800008857A00086E
:10008000D1800008D1800008D1800008D18000080C
:10009000D1800008D1800008D1800008D1800008FC
:1000A000D1800008D1800008D1800008D1800008EC
:1000B000D1800008D1800008D1800008D1800008DC
:1000C000D1800008D1800008D1800008D1800008CC
:1000D000917A0008D1800008D1800008D180000802
:1000E000D1800008D1800008D1800008D1800008AC
:1000F000D1800008D1800008D18000089D7A0008D6
:10010000D1800008D1800008D1800008D18000088B
:10011000D1800008D1800008D1800008D18000087B
:10012000D1800008D1800008D1800008D18000086B
:10013000D1800008D1800008D1800008D18000085B
:10014000D1800008D1800008D1800008A97A000879
:10015000D1800008D1800008D1800008D18000083B
:10016000D1800008D1800008D1800008D18000082B
:10017000D1800008D1800008D18000080000000074
:08018000D1800008D1800008C5
:1001880010B5054C237833B9044B13B10448AFF3C9
:1001980000800123237010BDE8000020000000004B
:1001A800E482000808B5034B1BB103490348AFF3C9
:1001B800008008BD00000000EC000020E482000878
:1001C80053B94AB9002908BF00281CBF4FF0FF31B6
:1001D8004FF0FF3000F07AB9ADF1080C6DE904CEAC
:1001E80000F006F8DDF804E0DDE9022304B070470A
:1001F8002DE9F0478C460D460446089E002B51D148
:100208008A4217466DD9B2FA82FEBEF1000F0BD0B2
:10021800CEF1200C01FA0EF520FA0CFC02FA0EF7CA
:100228004CEA050C00FA0EF44FEA174A250CBCFB01
:10023800FAF81FFA87F90AFB18CC45EA0C4508FBBF
:1002480009F3AB420AD9ED1908F1FF3280F0238196
:10025800AB4240F22081A8F102083D44ED1AA4B255
:10026800B5FBFAF00AFB105544EA054400FB09F90E
:10027800A14509D9E41900F1FF3380F00A81A145AD
:1002880040F2078102383C44A4EB090440EA0840E4
:100298000021002E61D024FA0EF40023346073602C
:1002A800BDE8F0878B4207D9002E54D0002186E89C
:1002B80021000846BDE8F087B3FA83F1002940F031
:1002C8008E80AB4202D3824200F2FA80841A65EB38
:1002D80003050120AC46002E3FD086E81010BDE88B
:1002E800F08712B90127B7FBF2F7B7FA87FEBEF11C
:1002F800000F34D1EB1B3A0C1FFA87FC0121B3FB2A
:10030800F2F8250C02FB183345EA03450CFB08F309
:10031800AB4207D9ED1908F1FF3002D2AB4200F227
:10032800D1808046ED1AA3B2B5FBF2F002FB10555E
:1003380043EA05440CFB00FCA44507D9E41900F185
:10034800FF3302D2A44500F2B8801846A4EB0C048F
:1003580040EA08409DE731463046BDE8F087CEF1D7
:10036800200405FA0EF307FA0EF720FA04F83A0CFF
:1003780025FA04F448EA0308B4FBF2F14FEA1845F9
:1003880002FB11441FFA87FC45EA044501FB0CF304
:10039800AB4200FA0EF409D9ED1901F1FF3080F0F3
:1003A8008A80AB4240F2878002393D44EB1A1FFA3B
:1003B80088F5B3FBF2F002FB103345EA034500FB76
:1003C8000CF3AB4207D9ED1900F1FF386FD2AB42FD
:1003D8006DD902383D44EB1A40EA01418FE7C1F17B
:1003E800200722FA07F88B4005FA01F448EA0303CC
:1003F80020FA07FE4FEA134CFD404EEA040EB5FB07
:10040800FCF94FEA1E440CFB19551FFA83F844EA1D
:10041800054509FB08F4AC4202FA01F200FA01FAB8
:1004280008D9ED1809F1FF3043D2AC4241D9A9F1FE
:1004380002091D442D1B1FFA8EFEB5FBFCF00CFBB8
:1004480010554EEA054400FB08F8A04507D9E41802
:1004580000F1FF3529D2A04527D902381C4440EACB
:100468000940A4EB0804A0FB02894C45C6464D464A
:1004780015D312D056B1BAEB0E0364EB050404FA97
:1004880007F7CB401F43CC40376074600021BDE8BC
:10049800F0871846F8E69046E0E6C245EAD2B8EB9F
:1004A800020E69EB03050138E4E72846D7E7404622
:1004B80091E78146BEE7014678E702383C4445E7C4
:1004C800084608E7A8F102083D442BE7704700BF3B
:1004D80038B50E4A0E4B054618784FF47A73B3FBBD
:1004E800F0F31068B0FBF3F000F0A8F8044658B930
:1004F8000F2D09D8024629464FF0FF3000F05EF86C
:10050800044B20461D6038BD012038BD680000201E
:10051800000000200400002008B50B4B1A6842F4C4
:1005280000721A601A6842F480621A601A6842F40B
:1005380080721A60032000F02FF80020FFF7C8FF30
:1005480007F04CFA002008BD003C0240034A044B67
:1005580011681B780B441360704700BF2806002001
:1005680000000020014B1868704700BF28060020D3
:1005780038B50446FFF7F6FF631C1CBF054B1B7814
:10058800054618BFE418FFF7EDFF401B8442FAD870
:1005980038BD00BF00000020074AD36823F4E06399
:1005A8001B041B0C43F0BF63000243F4003300F448
:1005B800E0600343D360704700ED00E0174B30B5AF
:1005C800DC68C4F30224C4F10703251D042B28BFEB
:1005D8000423062D4FF0010505FA03F303F1FF3359
:1005E8008CBF033C00241940A14005FA04F4013CE7
:1005F8002240002842EA01024FEA0212AFBF00F18E
:10060800604000F00F00064BD2B2A5BF00F5614074
:10061800D2B21A5480F8002330BD00BF00ED00E0CC
:1006280014ED00E04209012300F01F0003FA00F076
:10063800014B43F82200704700E100E00138B0F1B7
:10064800807F0AD2064B074A5860F02182F82310AF
:100658000020072298601A6070470120704700BF89
:1006680010E000E000ED00E0044B1A6804280CBF1D
:1006780042F0040222F004021A60704710E000E021
:10068800704708B5FFF7FCFF08BD00000368DAB241
:1006980023F47F7323F003031821103AB2FBF1F21D
:1006A8000449032A88BF0433895C8365C165806D6A
:1006B800704700BFFC82000870B50446FFF752FF80
:1006C8000546002C71D0002384F8343022680223B8
:1006D80084F83530136823F00103136021680B6830
:1006E800D8073CD40B68324D6268A0691D40A368E6
:1006F8001343E26813432269134362691343E269AF
:1007080003431343226A1343626A042A43EA050334
:1007180001BF266BE56A35432B430B604B69042AFE
:1007280023F0070343EA02030BD1A26AE56A1343E5
:100738003DB1F8B9012A2DD001D3022A01D1EA012D
:100748002BD44B612046FFF7A1FFE26D3F23934076
:10075800836000200123606584F8353070BDFFF7A1
:1007680001FF401B0528B9D920236365032084F8BD
:10077800350070BDB0F5005F13D1032AE1D801A0A0
:1007880050F822F0A307000847070008A30700084D
:100798009D070008B5F1C07FD3D1402363650120D0
:1007A800E5E7022AF9D9032AC8E7012070BD00BF8E
:1007B8003F8010F038B50546F0B190F83540E4B206
:1007C800022C17D003681A6822F001021A6000246C
:1007D80021221C605C609C60DC601C615A61FFF730
:1007E80055FFEA6D3F23934083606C6585F834407C
:1007F80085F83540204638BD012038BD70B590F8E1
:100808003440012C36D0012480F8344090F835402B
:10081800866D012C4FF000054FF0020428D180F8B6
:10082800354004684565256825F4802525606360A2
:100838008368402B0EBFA260A160E260C26D08BF52
:10084800E1603F239340B360236843F016032360BD
:10085800636943F080036361036C1BB1236843F051
:1008680008032360236843F001032360002070BD60
:1008780080F83450022070BD70B50446856DFFF7CE
:1008880071FE94F83530022B064606D08023636546
:10089800002384F83430012070BD23681A6822F0E0
:1008A80016021A605A6922F080025A61226C0AB94B
:1008B800A26C1AB11A6822F008021A601A6822F0AB
:1008C80001021A602368186810F0010009D1E26D6E
:1008D8003F239340AB60012384F8340084F835301B
:1008E80070BDFFF73FFE801B0528EBD92023636509
:1008F8000320002384F8343084F8350070BD90F864
:100908003530022B03D080234365012070470268ED
:10091800052380F83530136823F0010313600020A5
:1009280070470000F7B5002301935A4B856D1F6887
:10093800C36D2E6808229A40164204460CD00168FE
:100948000868400708D5086820F004000860AA6015
:10095800626D42F00102626501229A40164208D097
:1009680021684969090641BFAA60626D42F0020226
:10097800626504229A40164208D0216809688807EF
:1009880041BFAA60626D42F00402626510229A407B
:10099800164210D02368196809070CD5AA601A688E
:1009A800500335D51B68190301D4236C00E0A36CF0
:1009B8000BB120469847E16D20228A40164238D074
:1009C80023681868C60634D5AA6094F83520052A25
:1009D8001A6825D122F016021A605A6922F080029C
:1009E8005A61226C0AB9A26C1AB11A6822F008027C
:1009F8001A603F238B40AB60002384F83430012316
:100A080084F83530236D0BB12046984703B0F0BD0C
:100A18001A68D2055EBF1A6822F008021A60C4E795
:100A2800500328D51B68190332D4636C0BB12046D8
:100A38009847636D002BE9D0636DDA0719D5052354
:100A4800226884F83530136823F0010313604FF4EB
:100A58001653B7FBF3F7019B01339F42019302D36F
:100A68001368DB07F7D4002384F83430012384F8B3
:100A78003530E36CC7E71A6812F4807208D1196838
:100A880021F010011960012384F8342084F83530EE
:100A9800E36BCBE7680000202DE9F04F85B00B68C9
:100AA800DFF8AC81684ADFF8AC91019300234FF07E
:100AB800010E019C0EFA03FE0EEA0406B64540F04C
:100AC800AE804C6824F01007022F16D14FEAD30AE3
:100AD80000EB8A0A03F0070BDAF820504FEA8B0B79
:100AE8004FF00F0C0CFA0BFC25EA0C0C0D6905FAFB
:100AF8000BF545EA0C05CAF820504FEA430A0325CE
:100B0800D0F800B005FA0AF5ED4304F0030C0BEA3F
:100B1800050B0CFA0AFC013F4CEA0B0C012FC0F83C
:100B280000C011D8876807EA050BCF6807FA0AFCE6
:100B38004CEA0B078760476827EA0E0EC4F30017D4
:100B48009F4047EA0E074760C7683D408F6807FA2D
:100B58000AF73D43C560E50061D54FF0000BCDF8BD
:100B68000CB0D8F84470394D47F48047C8F8447041
:100B7800D8F8447007F480470397039F23F00307CE
:100B880007F1804707F59C3703F0030CD7F808A056
:100B98004FEA8C0C4FF00F0E0EFA0CFEA8422AEA10
:100BA8000E0E43D005F58065A84241D005F5806555
:100BB800A8423FD005F58065A8423DD005F580657F
:100BC800A8423BD048453BD005F50065A84239D03E
:100BD80005F58065A84214BF0825072505FA0CF518
:100BE80045EA0E05BD601568F74314F4803F0CBF55
:100BF8003D4035431560556814F4003F0CBF3D4037
:100C080035435560956814F4801F0CBF3D4035434B
:100C18009560D568A40254BF3D403543D560013383
:100C2800102B7FF444AF05B0BDE8F08F5D46D5E7E3
:100C38000125D3E70225D1E70325CFE70425CDE732
:100C48000525CBE70625C9E7003C01400000024026
:100C580000380240001402402DE9F04F464EDFF8FC
:100C680020A1DFF820B100244FF0010909FA04F2AD
:100C780032EA01036CD1032304FA09F5076803FA81
:100C880005F5ED4324FA03FC2F4000EB8C0C0760BC
:100C980004F0070EDCF820800F274FEA8E0E07FAC3
:100CA8000EFE28EA0E0ECCF820E0D0F808E005EA9F
:100CB8000E0EC0F808E0D0F804E0D24302EA0E0EA7
:100CC800C0F804E0D0F80CE005EA0E05C56024F091
:100CD800030505F1804505F59C3504EA030E274B0D
:100CE800D5F808C04FEA8E0E07FA0EF798420CEABC
:100CF800070C32D003F58063984230D003F5806347
:100D080098422ED003F5806398422CD003F5806377
:100D180098422AD003F58063984228D0504528D0BD
:100D280058450CBF0723082303FA0EF39C450FD13F
:100D3800AB6823EA0707AF60336813403360736812
:100D480013407360B3681340B360F3681A40F260ED
:100D58000134102C88D1BDE8F08F0023E4E74B461E
:100D6800E2E70223E0E70323DEE70423DCE70523C9
:100D7800DAE70623D8E700BF003C01400000024044
:100D880000180240001C02400AB181617047090442
:100D9800FBE72DE9FF41044690F890029DF8286092
:100DA8009DF82C70BDF830E0012821D0012084F88E
:100DB8009002282000FB014002F07F0CD50980F842
:100DC800383080F8391080F83F7080F83AC080F8E1
:100DD8003B5080F83C60A0F840E08DE8C0402068B7
:100DE80002F0C6F9002384F8903204B0BDE8F0811F
:100DF8000220FAE790F89032012B10B5044609D08A
:100E0800012380F89032006802F06BFB002084F820
:100E1800900210BD022010BD2DE9F04107468AB0AE
:100E2800A0B303233C4680F8913206F093FE54F8B1
:100E3800100B02F047F80FCC6D460FC50FCC0FC54D
:100E480094E8030085E8030007F104083E4698E8A3
:100E58000E00386801F0F6FF56F8100B012102F079
:100E680037F80FCE6D460FC50FCE0FC594E80300B7
:100E780085E8030098E80E00386802F0A5F8012319
:100E880087F8913200200AB0BDE8F0810120FAE726
:100E9800F0B5282606FB01069DF814E0069DBDF86E
:100EA8001C409DF8207086F83B2086F83F30BEF144
:100EB800000F0ED14FF0030E022B86F842E04AD005
:100EC800734555D0012B2FD1282303FB01030022A2
:100ED80055E04FF0020C86F842C0032B24D801A637
:100EE80056F823F0FD0E0008D10E00085F0F000829
:100EF800790F0008BEF1010F16D1AAB924B9282329
:100F080003FB010383F851E0282303FB010292F855
:100F18005160F6B982F8426003FB010393F85C2044
:100F2800022A01D083F83D70282606FB010300221F
:100F380083F8391019465D649C6483F85C20DA6490
:100F480083F85D203831027C0068BDE8F04002F08B
:100F58007BB90226DEE7282303FB010392B993F845
:100F680051601EB983F842202823D5E70222F9E709
:100F7800282303FB01032AB993F8516036B983F893
:100F88004220D1E793F85020002AF8D00222F6E751
:100F98002DE9F04F066887B00446304601F0F8FFA7
:100FA800012840F0EC80206801F0EEFF002800F0F6
:100FB800E680206801F0E8FF810248BF23682068C6
:100FC80044BF4FF400125A6101F0DEFFC20248BF6D
:100FD8002368206844BF4FF480125A6101F0D4FF9F
:100FE800430148BF2368206844BF4FF080625A61BC
:100FF80001F0CAFF870748BF2368206844BF022260
:101008005A6101F0C1FF850010D5D6F8403423F0AD
:101018002E03C6F84034204606F0DEFD0121206884
:1010280002F044F823684FF000525A61206801F03A
:10103800ABFFC00140D52568D5F840340493D5F8F6
:1010480040340593059B23F02E030593049B9907D1
:101058000DD5049BDA0706D5AB6923F00053AB61C5
:10106800204606F0B5FD059B43F002030593049B5B
:101078001B0717D5059B43F008030593049B5F07DF
:1010880040F18880A16902297CD1049B206803F47F
:10109800C023B3F5802F18BF012102F007F82046BE
:1010A80006F096FD049B980642BF059B43F020037B
:1010B8000593059BC5F84034206801F065FF0107DA
:1010C80005D5204606F080FD236808225A6120686D
:1010D80001F05AFF820114D5206802F0F3F906F5F1
:1010E800A063029001934FF0000B4FF0010A2827EC
:1010F8004FF00209A3689B4558D323684FF000724C
:101108005A61206801F040FFC30638D52568AB69ED
:1011180023F01003AB612F6AC7F34343022B29D195
:10112800C7F30A18B8F1000F24D007F00F072826D4
:1011380006FB0746716CE9B14246284601F016FFE6
:10114800736C4344736405F5A065F36C05EB4715B0
:101158004344F3642A69B74B13405BB12B6823F00F
:10116800804343F000432B6096F8503083F001032E
:1011780086F850302268936943F01003936107B0F2
:10118800BDE8F08FE368032B04BF4EF66022C5F874
:10119800042484E7D5F84034226823F02E03C5F8E8
:1011A8004034936943F0005393617BE7029A0AFA4B
:1011B8000BF3134200F08680019B20681B6813F430
:1011C800004F5FFA8BF500F00A816A0100F5A0680C
:1011D80002EB0806B1684B0713D50421B160F1682A
:1011E80041F00201F160B1688B053DD5F3682068D4
:1011F80043F00203F360294602F073F94FF40073D9
:101208002BE1B168890602D52021B160EBE7B1680E
:101218000B0713D5F168039241F00201F16007FB57
:1012280005414FF0050E81F85DE01021B1600821FD
:10123800B160294602F055F9039AD4E7B168490527
:10124800D1D5F168039241F00201F160294602F01C
:1012580048F91021B16007FB0541082081F85D00BD
:101268004FF48061B160E7E7B168C80740D52169EC
:1012780049B107FB054E3069DEF84810C0F312008B
:10128800091ACEF84C1007FB05410020886581F843
:101298005DA0C6F808A091F83F0010F0FD0F17D127
:1012A800F368206843F00203F360294602F019F955
:1012B8001023B36007FB054595F8503083F0010310
:1012C80085F85030019B20330BF1010B019311E796
:1012D8000328EFD152F8080040F0005042F8080007
:1012E80081F85CA001222946204606F079FCE1E756
:1012F800B168890735D5F16807FB054021F002017F
:10130800F16090F85D1001290CD180F85C1007FBA2
:101318000543C6F8089093F85C202946204606F055
:101328005FFCCFE70529F0D0062901D00829EED1C6
:1013380007FB0541886D032800F1010388BF0020E1
:101348008B6583BF8865042081F85C0081F85C9018
:1013580052F8081021F0804141F0004142F808108D
:10136800D5E7B1680B0611D5F368206843F002038E
:10137800F36007FB054329469A6D01329A650622F8
:1013880083F85D2002F0ADF8802366E0B168C806F6
:1013980098D507FB054191F83F10032909D1F16859
:1013A8002068039241F00201F160294602F099F8A1
:1013B800039A07FB0545032185F85D101021B160EC
:1013C80095F83F1011F0FD0F7FF47CAF52F808102C
:1013D80021F0804141F0004142F8081072E700F521
:1013E800A06606EB4516B368590706D50423B36013
:1013F800F36843F00203F36064E7B36813F0200373
:101408001AD02023B36007FB054393F83D20012A37
:101418007FF458AF042283F85D20F268039342F00A
:101428000202F260294602F05CF8039B83F85C90A4
:1014380048E700BF0000F81FB26852060FD507FB47
:10144800054204219365F36882F85D1043F00203B6
:10145800F360294602F045F84023B36032E7B268EA
:1014680012F4007205D0F36843F00203F3602946D2
:10147800C2E6B368D90710D507FB054329469A6524
:10148800F268039342F00202F26002F02AF8039B2A
:10149800C6F808A083F85DA014E7B3681A070ED54C
:1014A8000823B360F36843F00203F360294602F0AF
:1014B80018F807FB0545052385F85D3002E7B36892
:1014C800DB0611D507FB054300229A65F2680393F2
:1014D80042F00202F260294602F003F8039B03225D
:1014E80083F85D201023B8E7B36819060CD5F368B4
:1014F80043F00203F360294607FB054501F0F1FFBD
:10150800062385F85D303FE7B16811F480610FD09C
:10151800F36843F00203F360294601F0E2FF102369
:10152800B3604FF48063B36007FB05450823C3E746
:10153800B3689A077FF5C6AEF36823F00203F36039
:1015480007FB054393F85D20012A0DD183F85C2041
:1015580093F83F20022A7FF4DAAE93F8512082F004
:10156800010283F85120D2E6032A02D183F85C9065
:10157800CDE6042A04D183F85C9083F83D10C6E6D2
:10158800052A02D183F85C20C1E6062A02D0082A7F
:101598007FF4BDAE07FB05439A6D511C032A99657C
:1015A800E4D900229A650422ECE700BF38B590F828
:1015B8009032012B04460DD0012580F89052006826
:1015C80001F07AFC2946206801F0A6FD002084F885
:1015D800900238BD022038BD90F89032012B10B52A
:1015E800044609D0012380F89032006802F09EF882
:1015F800002084F8900210BD022010BD006801F0A0
:1016080072BD282303FB010191F85C007047282371
:1016180003FB0101C86C7047006801F0A4BD0068B5
:1016280001F098BD0268536913F480630DD06FF41C
:10163800806353610423036420220023036380F83A
:101648003C3080F83D2001207047184670472DE94E
:10165800F843044617469946C1F307488EB22568F1
:10166800B8F1010F0CBF6B69AB6936EA030314BF0D
:101678000120002008B9BDE8F8836B695A0512D526
:101688002B6843F400732B606FF480636B61042351
:10169800236420220023236384F83C3084F83D200F
:1016A8000120BDE8F8837B1CD9D04FB90023202244
:1016B800236384F83C3084F83D200320BDE8F88398
:1016C800FEF750FFA0EB09008742C8D2EEE72DE9EC
:1016D800F843089E044690461F46C1F307498DB259
:1016E8002368B9F1010F0CBF5B699B6935EA0303F5
:1016F8000CBF01230023434502D00020BDE8F88336
:101708007B1CEDD05FB900232022236384F83C3092
:1017180084F83D20032084F83E30BDE8F883FEF7C6
:1017280021FF801B8742DBD2EDE770B504460D46EA
:10173800164623685B691B0601D5002070BD20464C
:10174800FFF770FFA8B96A1CF3D065B9236C43F0A2
:101758002003236420220023236384F83C3084F888
:101768003D20032070BDFEF7FDFE801B8542E0D2C0
:10177800ECE7012070BD00002DE9FF411546026825
:101788000B9E9846136843F4807313600F460096C7
:101798000A9B00224FF001110446FFF798FF68B931
:1017A80023680A9A1C4907F0FE071F612046334642
:1017B800FFF74DFF30B1236C042B18D0032004B081
:1017C800BDE8F081236803905A6903929B690393EB
:1017D80032460A99039B2046FFF7A7FF48B1236CBE
:1017E800042BEBD12268136843F4007313600120C3
:1017F800E5E7B8F1010F236802D1EDB21D61DEE71C
:101808002A0A1A610A9932462046FFF78EFF0028F5
:10181800E5D12368F1E700BF020001002DE9FF418F
:10182800984603680B9D16461A6842F480621A604F
:101838001A6842F480721A600F4600950A9B0022CB
:101848004FF001110446FFF742FF80B923682F4982
:10185800FFB207F0FE021A6120462B460A9AFFF7EC
:10186800F6FE40B1236C042B01D1012000E00320D7
:1018780004B0BDE8F081236803905A6903929B691C
:1018880003932A460A99039B2046FFF74EFF40B16F
:10189800236C042BEBD12268136843F400731360A4
:1018A800E3E7B8F1010F236824D1F6B21E612A4696
:1018B8000A992046FFF739FF02460028E8D1216837
:1018C8000B6843F480730B60204600950A9B4FF029
:1018D8000111FFF7FCFE0028C9D123680A9A0B49B9
:1018E80047F001071F6120462B46FFF7B0FE00288E
:1018F800B8D1BDE7320A1A610A992A462046FFF78D
:1019080014FF0028C4D12368CFE700BF02000100FC
:1019180070B504460D4616462068436913F0400327
:1019280001D0002070BD4269D2060BD56FF01002BD
:1019380042612022236484F83C302363012084F828
:101948003D2070BD5DB9236C43F020032364202340
:1019580084F83D30002384F83C30032070BDFEF746
:1019680001FE801B8542D7D2EDE770B504460D46CF
:10197800164623685B695B0701D5002070BD2046C9
:10198800FFF750FEA8B96A1CF3D065B9236C43F081
:101998002003236420220023236384F83C3084F846
:1019A8003D20032070BDFEF7DDFD801B8542E0D29F
:1019B800ECE7012070BD000070B50446002862D035
:1019C80090F83D3003F0FF021BB980F83C2005F089
:1019D8003FFA22682D4E2E4D242384F83D3013689B
:1019E80023F00103136000F085FF63682268B0FBF1
:1019F800F5F5B34284BF4FF496716943556091BFC2
:101A0800691C4FF47A75B1FBF5F10131B3421162EB
:101A180021D85B00B0FBF3F0C0F30B03032B98BF96
:101A28000420216AE369D0610B431360E1682369EC
:101A38000B439360A16963690B43D360136843F058
:101A48000103136000202023206484F83D302063C4
:101A580084F83E0070BDA16849B903EB4303B0FBAD
:101A6800F3F0C0F30B0363B140F40040D9E7192148
:101A78004B43B0FBF3F0C0F30B0313B140F4404009
:101A8800CFE70120CDE7012070BD00BFA08601008F
:101A980040420F0010B5044698B10268242380F82C
:101AA8003D30136823F00103136005F0FBF90020B3
:101AB800206484F83C0084F83D00206384F83E00EC
:101AC80010BD012010BD00002DE9F34704469A46D9
:101AD800884691460C9EFEF745FD94F83D30202B34
:101AE800054603D0022002B0BDE8F0870090192314
:101AF80001223E492046FFF7EAFD0028F2D194F87A
:101B08003C30012BEED0012384F83C3023681A685E
:101B1800D2075EBF1A6842F001021A601A6822F4FE
:101B280000621A60212384F83D30402384F83E3057
:101B38000A9B63620027BDF82C30276463852C4B11
:101B4800E362638D23850195009653464A464146D4
:101B58002046FFF711FE00282AD0236C84F83C7039
:101B6800042B07D10120BEE7FFF7DFFD20B1236C6E
:101B7800042B34D00320B6E7616A2768228D4B1CFA
:101B880063620B783B61638D013B9BB263857B6924
:101B9800501E80B25B0720850AD548B18B1C636252
:101BA8004B783B61638D013B023A9BB2228563858A
:101BB800238D2A4631462046002BD5D1FFF7D5FE86
:101BC8000028D4D12268136843F4007313602023DB
:101BD80084F83D3084F83C0084F83E0083E72268AE
:101BE800136843F400731360BCE700BF02001000E1
:101BF8000000FFFF2DE9F047044686B09A460D46DF
:101C08009146109FFEF7AEFC94F83D30202B064617
:101C180004D00225284606B0BDE8F08700901923B5
:101C2800012279492046FFF752FD0028F1D194F8A6
:101C38003C30012BEDD0012384F83C3023681A682E
:101C4800D2075EBF1A6842F001021A601A6822F4CD
:101C580000621A60222384F83D30402384F83E3025
:101C68000E9B63624FF00008BDF83C30C4F840801A
:101C78006385664BE362638D238529460196009749
:101C880053464A462046FFF7C9FD054630B1236C46
:101C980084F83C80042B3AD10125BBE7228D2368C8
:101CA80092B902905A6902929A690292029A1A6843
:101CB80042F400721A60202384F83D30002384F82F
:101CC8003E3084F83C30A5E7012A22D11A6822F474
:101CD80080621A6003905A6903929A690392039A80
:101CE8001A6842F400721A60DFF82481238D002BF1
:101CF800E1D0032B6BD8012B23D13246394620463D
:101D0800FFF706FE002839D0236C202BC4D1032509
:101D180080E7022A0ED11A6822F480621A601A68D3
:101D280042F400621A6004905A6904929B69049311
:101D3800049BD9E705905A6905929B690593059B11
:101D4800D2E7022B00963B464FF000024146204660
:101D580022D1FFF7BCFC0028D9D123681A6842F4C5
:101D680000721A60626A1B69511C61621370238DCC
:101D7800013B2385638D013B9BB26385636A5A1CD3
:101D88006262226812691A70238D013B2385638D74
:101D9800013B9BB26385A9E7FFF799FC024600283F
:101DA800B5D12368196821F480611960616A1B69DB
:101DB800481C60620B70238D0096013B2385638D60
:101DC800013B9BB2638541463B462046C1E732460C
:101DD80039462046FFF79CFD002895D1636A5A1CB6
:101DE8006262226812691A70238D2268013B23857A
:101DF800638D013B9BB2638553695B077FF576AFC3
:101E0800636A591C6162BDE7020010000000FFFF11
:101E18000400010090F83D007047704738B504464B
:101E2800002945D0002A43D090F84130012B01D039
:101E3800022038BD05684162EB6903F00703032BF4
:101E480001D0052B31D153009BB22385638594F8CB
:101E58004030012BECD0012384F840300023636428
:101E6800A06B032384F84130124B0364124BC36305
:101E7800124BC364238D05F10C029BB2FEF7BEFC26
:101E88002368DA6951055EBFDA6942F48062DA6173
:101E98005A68920758BF5A684FF000005CBF42F07A
:101EA80002025A6084F8400038BD02854285CEE7B8
:101EB800012038BD751F00087F1F0008D3210008C6
:101EC80090F84030012B70B5044649D0012380F8C2
:101ED800403090F84130032B036814D15A68806B66
:101EE80022F002025A60FEF7C7FC2268D36923F485
:101EF80080631B041B0CD3610020012384F841304C
:101F080084F8400070BD90F84120042A05D15A6831
:101F1800C06B22F001025A60E5E790F84120052ADB
:101F2800E3D15A680F4E104D806B22F003025A60BD
:101F3800B3420CBF2B464FF040235A6822F00302ED
:101F48005A60FEF799FCE06BFEF796FC2368B342F3
:101F580018BF4FF04025EB6923F48063EB61C4E7B9
:101F6800022070BD003800400034004008B5806B86
:101F780005F010FD08BD0268126812F4807208B5F9
:101F8800836B08D11868416821F0020141605A85C5
:101F9800012283F84120184605F0F2FC08BD000034
:101FA80070B5044600283FD00225414B80F84150C7
:101FB8004363FFF732FF2268D36923F47B6323F07E
:101FC8000F03D36163691562022BD56935D0E368C5
:101FD800002BA36814BF202610260120202B98BFB1
:101FE800760000F047FD23696169B3F5007F1FD1D2
:101FF800E3680A22D3B1B300B0FBF3F353430A22D8
:10200800B3FBF1F30533B3FBF2F303F00102120261
:10201800C3F34F03991EFD2911D9636C43F01003D4
:102028006364204605F0C6FC012070BDF300E3E7B9
:102038000A23B0FBF6F04343E1E70022EAE7134343
:1020480022692068666813430362E268A368134341
:10205800A26913439BB246F400611943226A89B20C
:102068000D43012AC5611CD1124A62631249134A01
:10207800884218BF4FF0402236F40070D16921F42D
:102088007B6121F00F01D1614FF002011162D1692A
:102098000CBF4FF48070002043F4006303430B43EC
:1020A800D36100200123606484F8413070BD00BF13
:1020B800C92000080522000800380040003400400C
:1020C8001FB503689A68019290F84120042A0446D3
:1020D8003AD1019AD10719D55A68520616D5C26A5B
:1020E800911CC162D9681180428E013A92B242862F
:1020F800428E92B252B95A6822F060021204120C4F
:102108005A60012380F8413005F04FFC019B5906C5
:102118001AD523685A68920616D55A6822F06002C2
:102128001204120C5A6000220292DA6802929B682A
:102138000293029B012384F84130636C43F002034D
:102148006364204605F036FC94F84130032B3AD1FD
:10215800019B9B071BD522685368180617D5636A2D
:10216800991C1B886162D360638D013B9BB26385B8
:10217800638D9BB25BB9536823F0A0031B041B0C4F
:102188005360012384F84130204605F0F9FB019B98
:10219800190718D523685A68920614D55A6822F088
:1021A800A0021204120C5A60002203929B68039347
:1021B800039B012384F84130636C43F00403636498
:1021C800204605F0F7FB04B010BD806B026808B527
:1021D800536823F003035360002343854386012398
:1021E80080F84130436C43F00803436405F0E2FB98
:1021F80008BD90F841007047704700001FB503689C
:1022080092499A680092924A8B4218BF4FF0402236
:10221800044691680191D96901F44071B1F5007FD4
:1022280004D0D96911F4407F40F09780009A920752
:102238001DD55A6810061AD5626A911C1288616207
:10224800DA60628D013A92B26285628D92B272B999
:102258005A6822F0A0021204120C5A60638E9BB2D4
:102268002BB9012384F841302046FFF7C5FF019BB5
:10227800D90722D5754A2168754B914218BF4FF08E
:1022880040235A68520618D5E26A911CE162D9685F
:102298001180628E013A92B26286628E92B262B9FF
:1022A8005A6822F060025A60638D9BB22BB90123F1
:1022B80084F841302046FFF79FFF019B580624D53C
:1022C80062492368624A8B4218BF4FF04022516826
:1022D80089061AD5516821F0600151605A6822F0C8
:1022E800A0021204120C5A6000220292DA680292CA
:1022F8009B680293029B012384F84130636C43F08E
:1023080002036364204605F055FB009B1B0722D59A
:1023180023685A6890061ED55A684C4922F0A002D4
:102328001204120C5A604A4A8B4218BF4FF04022DE
:10233800516821F060015160002203929B68039369
:10234800039B012384F84130636C43F00403636406
:10235800204605F02FFB04B010BD019B99071AD544
:1023680053681B0617D5436A991C1B884162D360C2
:10237800438D013B9BB24385438D9BB25BB9536848
:1023880023F0A0035360438E9BB223B9012380F846
:102398004130FFF731FF009BD8071ED522685368EC
:1023A80059061AD5E36A991CE162D1681980638ECF
:1023B800013B9BB26386638E9BB273B9536823F06B
:1023C80060031B041B0C5360638D9BB22BB9012364
:1023D80084F841302046FFF70FFF009B5A061DD5B1
:1023E800226853689B0619D55368184923F060037F
:1023F8001B041B0C5360164B8A4218BF4FF0402336
:1024080020465A6822F0A0025A60012384F841301D
:10241800636C43F00203636405F0CCFA019B180770
:1024280099D50A4922680A4B8A4218BF4FF04023BF
:10243800596889068FD5596821F0A00159605368F9
:1024480023F060031B041B0C53607AE7003800403C
:10245800003400402DE9F341044618B9012002B0C8
:10246800BDE8F0810368DD0710D42368980758D4C5
:1024780023681A0700F19A8023685B0700F1B88087
:10248800A269002A40F019810020E8E7A64B9A6863
:1024980002F00C02042A07D09A6802F00C02082AFB
:1024A8000AD15B68590207D59F4B1B689A03DCD594
:1024B8006368002BD9D1D1E763689B4DB3F5803FA2
:1024C80011D12B6843F480332B60FEF74BF8964DFF
:1024D80006462B689B03C8D4FEF744F8801B642883
:1024E800F7D90320BBE7B3F5A02F04D12B6843F439
:1024F80080232B60E5E72A6822F480322A602A6864
:1025080022F480222A60002BDFD1FEF72BF8064642
:102518002B689F03A9D5FEF725F8801B6428F7D9F7
:10252800DFE7814B9A6812F00C0F07D09A6802F027
:102538000C02082A11D15B685E020ED47A4B1A6825
:10254800950702D5E268012A88D11A68216922F024
:10255800F80242EAC1021A608AE7E268734BB2B134
:1025680001221A60FDF7FEFF6F4D06462B6898079B
:1025780007D52B68226923F0F80343EAC2032B60CE
:1025880076E7FDF7EFFF801B0228EFD9A9E71A606D
:10259800FDF7E8FF644D06462B6899077FF568AF9D
:1025A800FDF7E0FF801B0228F6D99AE76269604BC5
:1025B8007AB101221A60FDF7D5FF5B4D06466B6FB5
:1025C8009F073FF559AFFDF7CDFF801B0228F6D9CD
:1025D80087E71A60FDF7C6FF534D06466B6F9807ED
:1025E8007FF54AAFFDF7BEFF801B0228F6D978E7D2
:1025F8004D4B1A6C12F0805228D101921A6C42F09D
:1026080080521A641B6C03F080530193019B0126CE
:10261800484D2B68D9051BD5A368434D012B27D1FD
:102628002B6F43F001032B67FDF79CFF3E4D0746D8
:1026380041F288382B6F9B0739D5002E3FF420AF25
:10264800394A136C23F08053136419E70026DFE737
:102658002B6843F480732B60FDF784FF07462B68D3
:10266800DA05D9D4FDF77EFFC01B0228F7D938E771
:10267800052B04D12B6F43F004032B67D0E72A6F97
:1026880022F001022A672A6F22F004022A67002B2F
:10269800CAD1FDF767FF41F2883807462B6F9807C4
:1026A800CBD5FDF75FFFC01B4045F7D919E7FDF70C
:1026B80059FFC01B4045BDD913E71B4DAB6803F05C
:1026C8000C03082B3FF4CAAE1B4E0023022A3360CA
:1026D80034D1FDF747FF07462B6899011ED4226ABB
:1026E800E3691343626A43EA8213E26A43EA0263D4
:1026F800A26A0D4C5208013A43EA02436B60012377
:102708003360FDF72FFF054623689A013FF5BCAEFD
:10271800FDF728FF401B0228F6D9E2E6FDF722FF65
:10272800C01B0228D8D9DCE6003802400000474226
:10273800800E47420070004060004742FDF712FFDC
:1027480004462B689B017FF59FAEFDF70BFF001B2E
:102758000228F6D9C5E600BF134908B58B6803F00F
:102768000C03042B03D0082B03D0104808BD1048D5
:1027780008BD4A684B68496813F4800314BF0C48C5
:102788000A48C1F3881118BF002302F03F02A1FBD9
:102798000001FDF715FD044B5B68C3F301430133EA
:1027A8005B00B0FBF3F008BD003802400024F400E1
:1027B80000127A002DE9F0410D46044610B90120B7
:1027C800BDE8F081444B1A6802F00F028A4228D310
:1027D80021688F072DD4C80740D43F4B1A6802F0F0
:1027E8000F02954266D3226851076CD4130707D5A8
:1027F8003A4A2169936823F4604343EAC10393602A
:10280800FFF7AAFF354B364A9B68C3F30313D35C23
:10281800D840344B18600020FDF75AFE0020BDE870
:10282800F081CAB21A701B6803F00F039942C6D12F
:10283800CEE72A4B11F0040F1EBF9A6842F4E0520B
:102848009A600E0742BF9A6842F460429A609A689A
:10285800A06822F0F00202439A60BCE762681F4B4E
:10286800012A1DD11B6813F4003FA8D01B4EB36882
:1028780023F003031343B360FDF774FE41F2883875
:102888000746B368626803F00C03B3EB820FA4D069
:10289800FDF768FEC01B4045F3D90320BDE8F08171
:1028A800911E01291B6802D813F0007FDDE713F0A1
:1028B800020FDAE7EAB21A701B6803F00F039D42B1
:1028C8007FF47DAF8FE70549E0688B6823F4E05318
:1028D80003438B608AE700BF003C02400038024097
:1028E8006093000868000020014B1868704700BF1B
:1028F80068000020044B054A9B68C3F38223D35C1D
:10290800034A1068D84070470038024070930008A6
:1029180068000020036813F0050FF7B5054605D1D8
:10292800286810F0020028D103B0F0BD414C424E97
:1029380000232360FDF716FE074633681B0115D4F4
:10294800AB686A681B0743EA8213C6F88430012320
:102958002360FDF707FE384C064623681801DFD4CC
:10296800FDF700FE801B0228F7D904E0FDF7FAFD09
:10297800C01B0228E1D90320D6E7002301932E4B80
:102988002E4C1A6C42F080521A641B6C03F0805370
:102998000193019B236843F480732360FDF7E2FDF4
:1029A80006462368D9051BD5234C236F13F44073BF
:1029B8001CD1EB6803F44072B2F5407F1E4A34D153
:1029C800916823F0704021F4F81120F4407001431D
:1029D8009160116FC3F30B030B4313670020A3E748
:1029E800FDF7C0FD801B0228DBD9C4E7EA6802F4C2
:1029F80040729342DDD0236F114A0121116023F404
:102A08004073002111602367236FDA07D1D5FDF7E2
:102A1800A9FD41F288370646236F9B07C9D4FDF705
:102A2800A1FD801BB842F7D9A5E7916821F4F811F8
:102A3800CEE700BF680047420038024000700040FF
:102A4800400E47420A4A03230360D2F88430C3F396
:102A580088134360D2F88430C3F3027383609368A9
:102A6800126F03F4F81302F440721343C360704703
:102A780000380240012820D1114B9A6812F4000254
:102A880004D0012A0F4818BF002070475A680C4923
:102A980058685302D1F884204CBF0B4B0B4B00F005
:102AA8003F00B3FBF0F3D1F88400C2F3881253431C
:102AB800C0F30270B3FBF0F070470020704700BF0E
:102AC800003802400080BB0000127A000024F400A5
:102AD8002DE9F041069E0446884617461D462268A1
:102AE800936838EA03030CBF012300239F4202D1F5
:102AF8000020BDE8F0816B1CF2D055BB23685A68F2
:102B080022F0E0025A606268B2F5827F0AD1A268B8
:102B1800B2F5004F02D0B2F5806F03D11A6822F0E7
:102B280040021A60A26AB2F5005F09D11A6822F45D
:102B380000521204120C1A601A6842F400521A6009
:102B4800012384F85130002384F850300320BDE875
:102B5800F081FDF707FD801B8542C0D8CEE713B58D
:102B68000B460092802100220446FFF7B1FF20B1F6
:102B7800636D43F020036365032002B010BD10B5F8
:102B88000446002836D00023836290F8513003F0C1
:102B9800FF021BB980F8502004F0CAFA2168A06827
:102BA800A269022384F851300B6823F040030B60BC
:102BB80063680343E0680343206903436069034390
:102BC800E0690343206A0343A06A034302F40070E8
:102BD80003430B60120C636A02F004021A434A6052
:102BE800CB6923F40063CB6100200123606584F87E
:102BF800513010BD012010BD2DE9FF411E4690F84F
:102C08005030012B04460D46904600F09C8001236D
:102C180080F85030FDF7A6FC074694F85100C0B282
:102C2800012840F08E80002D4ED0B8F1000F4BD017
:102C3800032384F8513000236365A363A4F8368026
:102C4800A387E38763642364A3682563B3F5004F10
:102C58002368A4F8348002BF1A6842F480421A60DC
:102C68001A6852065EBF1A6842F040021A60E268AB
:102C7800B2F5006F626838D11AB1E28E92B2012AB9
:102C880006D135F8022BDA60E38E013B9BB2E3866E
:102C9800E38E9BB293B90097334601220221204666
:102CA800FFF716FF78B93A4631462046FFF757FF37
:102CB800002838D020236365012005E023689A683E
:102CC8009007DED44EB90320012384F85130002345
:102CD80084F8503004B0BDE8F081711CD8D0FDF7FD
:102CE80041FCC01B8642D3D8EDE71AB1E28E92B2FE
:102CF800012A06D115F8012B1A73E38E013B9BB20A
:102D0800E386E38E9BB2002BC5D023689A689207AE
:102D1800F0D4002ED7D0731CF3D0FDF723FCC01BD2
:102D28008642EED8CFE7A36833B903932368DA68FD
:102D380003929B680393039B606D003018BF0120CA
:102D4800C2E70220C0E70220C4E77047036830B535
:102D580059689A6802F04105012D85B0044605D1ED
:102D68004D0603D5036C984705B030BD950704D5CB
:102D7800080602D5636C2046F5E712F4B07FF3D05D
:102D88008D06F1D550060FD594F8510003284FF061
:102D9800000541D0606D40F0040060650095D8687A
:102DA800009098680090009895060CD5606D40F0EA
:102DB800010060650020029098680290186820F071
:102DC800400018600298D00508D5626D42F00802EC
:102DD8006265002203929A680392039A626D002A40
:102DE800C2D05A6822F0E0025A60012284F85120C9
:102DF8008A0718D05A68E06C22F003025A6018B1AA
:102E08000B4B0365FDF77BFDA06C0028ACD0084B8D
:102E18000365FDF774FDA7E70195DA6801929B68E1
:102E28000193019BA0E72046FFF78FFF9CE700BFB7
:102E38003D2E000808B5806B0023C387C386FFF7C3
:102E480084FF08BD84B038B505AD85E80E000A9B3F
:102E5800012B044626D1836B23F480338363C36834
:102E680023F4840323F04003C360C36823F44013AE
:102E7800C360119B012B02BFC36843F48013C36076
:102E880000F08AF8089B012B07D1A36843F00603DA
:102E9800A360A36843F02003A360BDE83840002086
:102EA80004B07047C36843F04003C36000F074F88F
:102EB8004FF48033A363E5E7836843F0010383603D
:102EC80000207047836823F0010383600020704767
:102ED80008B5C368012923F0C043C36008D1C3689B
:102EE80043F00053C3603220FDF742FB002008BDC9
:102EF8000029F8D1C36843F08043C360F3E70000BA
:102F0800890141F02001064A0161013A05D00369AF
:102F180013F02003F9D1184670470320704700BF0B
:102F2800410D03001023064A0361013A05D00369E5
:102F380013F01003F9D1184670470320704700BFFB
:102F4800410D030010B59DF808404CB9033300F556
:102F5800805023F0030300EB02320B44994201D165
:102F6800002010BD51F8040B1060F7E7033222F07F
:102F780003020A4400F58050914201D10846704787
:102F8800036841F8043BF7E74269806910407047DD
:102F9800406900F0010070470A4B013B01D1032052
:102FA80070470269002AF8DA0369064A43F0010308
:102FB8000361013AF3D0036913F00103F9D118460C
:102FC800704700BF410D030084B038B5044605A81A
:102FD80080E80E000023C4F8003EA36B23F480238E
:102FE800A363A36B23F40023A363A36B43F400132D
:102FF800A363079B032BD4F800343CD1B4F1A04F52
:1030080039D043F00403C4F8003410212046FFF7F8
:1030180077FF2046FFF786FF0023069904F5A06294
:103028004FF0FF301D468B422AD10121204600F087
:1030380073F8C820FDF79CFA0023A361B4F1A04FF0
:103048004FF0FF33636120D18023636203F5C0032F
:10305800A362134BC4F80031089B1BB9A36943F062
:103068001003A361A2690F4B1343A361BDE8384065
:10307800002004B0704723F00403C4F80034C4E708
:1030880090600133D5602032CDE74FF4007363625E
:1030980003F18073A362044BC4F80031DCE700BF7E
:1030A800E0004000080020A30003E000D0F800344E
:1030B80023F0030310B5C0F80034D0F8004401F041
:1030C80003032343012900F58062C0F8003404D1CA
:1030D8004BF680335360002010BD022904BF41F233
:1030E80070735360F7E713B5D0F840340193019B30
:1030F80023F02E030193019B43F480730446C0F828
:1031080040340A20FDF734FA019B002023F4807331
:10311800C4F8403402B010BD82B0D0F840340193F6
:10312800019B23F02E030193019BDA0406D40129A5
:1031380002BF019B43F48053C0F84034019BDB0479
:1031480005D521B9019B23F48053C0F840340020F1
:1031580002B0704782B0D0F8403401930198C0F3B0
:10316800414002B0704700F58060806880B27047C7
:10317800F0B500F5A06404EB41149DF818504FF029
:10318800FF36A66057B2032D14D8DFE805F00253C6
:10319800024D40F29D46002FE66004DAE66846F4E8
:1031A8008076E66006E0B0F1A04F03D0E66846F00E
:1031B8006006E660D0F818C4012606FA01F141EA73
:1031C8000C01C0F8181481699B05D20241F0007106
:1031D80003F0FE5302F4F04281611A43BDF81C105B
:1031E8009DF81430002FB4BF4FF400460026C1F3F9
:1031F8000A01022B4FEA854342EA010203F4402305
:1032080043EA020300F5806E43EA06030CBF4FF45D
:103218000030002003432360032D02BF236843F0DE
:10322800005323600020F0BD40F29D66002FE66049
:10323800C0DAB3E740F22526E660002FBEBFE66895
:1032480046F4C076E660B5E780B58AB002AFF860AC
:10325800B9601346FB7100237B7700237B8300232F
:10326800FB834FF480733B8300237B61FB68B3F1DE
:10327800A04F2BD0BB681B79002B27D1FB79002BE3
:103288000BD1BB685B79012B07D1BB685B7819460A
:10329800F86800F00FFA00230DE1FB79012B15D136
:1032A800BB685B785A01FB68134403F5A0631946B1
:1032B800BB685B785A01FB68134403F5A063DB68BD
:1032C80023F06003CB60BB6800225A71BB681B699E
:1032D800002B19D0BB681B69BA6812891344013BDB
:1032E800BA681289B3FBF2F3FB83FA8B3B8B9A42E1
:1032F8000CD93B8BFB83FB8BBA68128902FB03F367
:103308001A46BB681A6101E00123FB83BB68DB78BE
:10331800002B07D0FB8BBA68128902FB03F31A460D
:10332800BB681A61BB685B785A01FB68134403F5F4
:10333800A0631946BB681B69C3F31202FB8BDB044D
:1033480018465F4B03401A43BB689B7A5B0703F040
:10335800C04313430B61FB79002B0AD0BB685B7831
:103368005A01FB68134403F5A0631A46BB68DB687F
:103378005361FB6803F580639B6803F00103002B2E
:103388000CBF01230023DBB27B77BB685B785A0153
:10339800FB68134403F5A0631946BB685B785A01C0
:1033A800FB68134403F5A0631B6823F000530B600C
:1033B800BB685B785A01FB68134403F5A0631946A0
:1033C800BB685B785A01FB68134403F5A0631B686C
:1033D8007A7F520713430B60BB685B785A01FB681E
:1033E800134403F5A0631B687B617B6923F080436A
:1033F8007B617B6943F000437B61BB685B785A0162
:10340800FB68134403F5A0631A467B691360FB79D4
:10341800002B4FD1BB68DB78002B4BD1BB681B69F5
:10342800002B47D0BB68DB79032B31D801A252F8B7
:1034380023F000BF4D340008713400084D340008F3
:1034480071340008BB681B6903339B087B837A8B44
:10345800FB68DB6A9BB29A421CD9FB689B6943F004
:103468002002FB689A6115E0BB681B6903339B085F
:103478007B837A8BFB6803F580631B699BB29A4256
:103488000AD9FB689B6943F08062FB689A6103E094
:1034980000BF02E000BF00E000BFBB68D968BB689E
:1034A8005A78BB681B6998B2002300930346F868F2
:1034B800FFF748FD002318462037BD4680BD00BFF2
:1034C8000000F81F80B483B000AF78607B6803F514
:1034D80080635B699BB218460C37BD465DF8047B78
:1034E800704780B485B000AF78600B46FB7000234E
:1034F800FB60FB785A017B68134403F5A0631B68E3
:103508009B0C03F00303002B0BD0FB785A017B685C
:10351800134403F5A0631B689B0C03F00303022B01
:1035280060D1FB785A017B68134403F5A063194600
:10353800FB785A017B68134403F5A0631B6843F0CA
:1035480080430B607B68DB6A03F47F03002B35D173
:10355800FB785A017B68134403F5A0631946FB788E
:103568005A017B68134403F5A0631B6823F00043EA
:103578000B60FB785A017B68134403F5A063194676
:10358800FB785A017B68134403F5A0631B6843F07A
:1035980000430B60FB680133FB60FB68B3F57A7F7F
:1035A8001ED8FB785A017B68134403F5A0631B6897
:1035B80003F00043B3F1004FECD074E0FB785A01FC
:1035C8007B68134403F5A0631946FB785A017B68AE
:1035D800134403F5A0631B6843F000430B6062E0EB
:1035E80000BF60E0FB785A017B68134403F5A063D1
:1035F8001946FB785A017B68134403F5A0631B68DE
:1036080043F080430B607B6803F580631B699BB2C2
:10361800002B35D1FB785A017B68134403F5A0636E
:103628001946FB785A017B68134403F5A0631B68AD
:1036380023F000430B60FB785A017B68134403F5C1
:10364800A0631946FB785A017B68134403F5A0630D
:103658001B6843F000430B60FB680133FB60FB68A9
:10366800B3F57A7F1ED8FB785A017B68134403F5BB
:10367800A0631B6803F00043B3F1004FECD012E0E5
:10368800FB785A017B68134403F5A0631946FB785D
:103698005A017B68134403F5A0631B6843F0004399
:1036A8000B6000E000BF002318461437BD465DF8E4
:1036B800047B704780B485B000AF78600B46FB7020
:1036C8000123FB730023BB60FB785A017B6813441A
:1036D80003F5A0631A46FB7BDB041946124B0B402B
:1036E80043F000431361FB785A017B68134403F5E8
:1036F800A0631B68BB60BB6823F08043BB60BB68EA
:1037080043F00043BB60FB785A017B68134403F520
:10371800A0631A46BB681360002318461437BD46D9
:103728005DF8047B704700BF0000F81F80B586B0C5
:1037380000AF786000233B617868FFF7C3FB102176
:103748007868FFF7DDFB7868FFF7ECFB0023FB7573
:103758001FE0FB7D5A017B68134403F5A0631B68D7
:10376800FB60FB6843F08043FB60FB6823F0004389
:10377800FB60FB6823F40043FB60FB7D5A017B6818
:10378800134403F5A0631A46FB681360FB7D0133FD
:10379800FB75FB7D0F2BDCD90023FB7534E0FB7D2B
:1037A8005A017B68134403F5A0631B68FB60FB6840
:1037B80043F08043FB60FB6843F00043FB60FB6819
:1037C80023F40043FB60FB7D5A017B68134403F537
:1037D800A0631A46FB6813603B6901333B613B6990
:1037E800B3F57A7F0CD8FB7D5A017B68134403F547
:1037F800A0631B6803F00043B3F1004FECD000E076
:1038080000BFFB7D0133FB75FB7D0F2BC7D97B68A0
:1038180003F580631A464FF0FF3353617B684FF01E
:10382800FF325A617868FFF747FB002318461837BC
:10383800BD4680BD00207047D0F8743370B5DD698F
:103848002B7B064623B113F1FF3018BF012070BD52
:10385800B5F8F8102A6891424FF0010480F0C6804C
:10386800342202FB015383F8914093F890301446B8
:10387800082B3AD8DFE803F0053920640E87393978
:10388800B60004FB0154042384F89030D0F8B83310
:10389800C5F8FC30342404FB01529F32C9B23046CB
:1038A80000F0E7FB00285FD1B5F8F83004FB0355BA
:1038B800022385F8903018E0C9B200F075FBB0B962
:1038C800B5F8F830342202FB035191F8920000B1A8
:1038D800012002FB0355032381F8C10085F89030CD
:1038E800002385F8913085F89230012070BD0228B8
:1038F80018D1B5F8F830342202FB035102FB035506
:1039080091F89200022814BF01200020052381F8B5
:10391800C10085F890300120022385F8910085F8D0
:10392800923070BD0428E0D1B5F8F830342202FB9B
:1039380003550120022385F8900085F8913070BD69
:1039480004FB01529432C9B200F054FB60B9B5F8D7
:10395800F820012304FB02541A4484F8903084F8B8
:103968009100A5F8F820C0E7022805D1B5F8F8308D
:1039780004FB035505239CE70428B6D1B5F8F830B5
:1039880004FB0355D5E704FB01529C32C9B200F091
:10399800DAFBF8B9B5F8F83004FB035494F89C2026
:1039A80002F0FB02022A0BD1D5F8FC00D6F8B813B6
:1039B800091A42F20F70814202D884F8902094E7E5
:1039C800342202FB03520120034482F89000A5F838
:1039D800F83070BD0228CFD1B5F8F83004FB035594
:1039E800082366E70131A5F8F8107EE7A5F8F83056
:1039F8002C73D0F8C4330221984776E7D0F8743393
:103A080070B5DC69A37B022B024602D0032B20D0C1
:103A18002BBB2146104600F0BCF903280ED1002329
:103A280023602278002301322260342002251E46BA
:103A3800591CDBB29A4204D8002070BD0028F0D08F
:103A480070BD00FB034383F8925083F8C1600B46B6
:103A5800EEE7002101F025F808B9E37BA373012004
:103A6800EEE738B5D0F87433DD696979044639B1C1
:103A780001F093F86979204601F0ACF800236B71E6
:103A8800297941B1204601F088F82979204601F0CA
:103A9800A1F800232B71D4F87433D86928B104F045
:103AA80041FBD4F874330022DA61002038BDF0B548
:103AB800D0F8741385B0097950230622054600F022
:103AC80063FCFF2801466DD0284600F054FC4FF4F3
:103AD8008070D5F8746304F01DFBF06195F81F231E
:103AE8001A23044603FB025003FB025390F84813C1
:103AF80093F85023B0F84A03B3F8523311F0800F0B
:103B080019BFE1716081A171208112F0800F08BF97
:103B1800A2714FF00006A17918BFE271284614BFC0
:103B280063812381A4F8F860A4F8FA6026736673A9
:103B3800A67301F037F8E1796071284601F032F890
:103B48002071284600F030F96822314604F19000CF
:103B580004F0F0FA20890290022795F81D0395F8E1
:103B68001C33A279617900900197284601F006F884
:103B78006089029095F81D0395F81C33E279217944
:103B880000900197284600F0F9FF3246217928462F
:103B980004F0E1F832466179284604F0DCF8304652
:103BA80005B0F0BD0220FBE7D0F8743373B5DD69CA
:103BB800342606FB015494F89030062B10D0072BBE
:103BC80019D0052B22D106FB01529C3200F0BBFA1A
:103BD800F0B90123022084F8903084F8910008E0BD
:103BE800002300931A4600F03BFB50B9012384F8E8
:103BF800903002B070BD002300931A4600F0ECFA32
:103C0800F3E7022804D1052384F890300120F0E777
:103C18000428FBD1082384F890300220E9E70378D0
:103C28000A2B01BFD0F87433DB69342202FB01315F
:103C380003BF91F89100B0FA80F040090020704766
:103C480003780A2B10B511D1D0F8740390243423CB
:103C580013FB0143C169194401F1340351F8040B02
:103C680042F8040B9942F9D1002010BD022010BD82
:103C78002DE9F74390F81E53DDF8288004460F46D7
:103C8800BDB305780A2D34D1D0F87453ED693426C4
:103C980006FB015696F890E0BEF1010F29D14FF0CE
:103CA800060E85F80CE086F890E0A5F8FA10CDF835
:103CB800008000F0D5FA42F21076D4F8B89306FBEB
:103CC80008F639462046FFF76FFF012805D0012383
:103CD8002B73002003B0BDE8F083D4F8B833A3EB0E
:103CE8000903B34203D894F81E33002BE9D101230A
:103CF8002B730220EEE72DE9F74390F81E53DDF809
:103D0800288004460F46BDB305780A2D34D1D0F873
:103D18007453ED69342606FB015696F890E0BEF11F
:103D2800010F29D14FF0070E85F80CE086F890E0D6
:103D3800A5F8FA10CDF8008000F04EFA42F210769D
:103D4800D4F8B89306FB08F639462046FFF72CFF4F
:103D5800012805D001232B73002003B0BDE8F083B0
:103D6800D4F8B833A3EB0903B34203D894F81E334D
:103D7800002BE9D101232B730220EEE721220274E4
:103D8800FF224274002242828282C282114600F0DF
:103D98007CBCA1220274FE224274002242828282EA
:103DA8000122C28200F071BCD0F87433054ADB6985
:103DB8005A65054A9A65012283F8502083F85220F3
:103DC800002070475553424350403020D0F8743398
:103DD80073B5DC6994F85030013B06460A2B59D874
:103DE800DFE813F00B001A0033003D005E006800A6
:103DF8008B009300B400BE00D6000223012584F88E
:103E0800611084F850301F226379009504F1540141
:103E1800304600F08CFE3DE0617903F08BFF01280D
:103E28000CD1E36D43B194F96030002BB4BF032388
:103E3800052384F8503006E00723FAE7022858D112
:103E4800012084F8500002B070BD23796289D4F84B
:103E58008C1000F083FE042384F850301AE0217996
:103E680003F068FF012817D1E36D628993428ABF86
:103E78009B1A0023D4F88C10E365E36D84BF89187E
:103E8800C4F88C10002B65D02379D4F88C103046F8
:103E980000F064FE0120D6E70528FBD10923DBE703
:103EA8000125637922890095D4F88C1000F03FFE33
:103EB8000623D1E7617903F03DFF012815D1E36DB1
:103EC800228993428ABF9B1A0023D4F88C10E36599
:103ED800E36D84BF8918C4F88C100125002B39D0F4
:103EE80063790095D4F88C1092E7022801D1052354
:103EF800B2E70528CED10A23AEE723790D2204F1D3
:103F0800780100F02BFE0823A6E7217903F012FFC1
:103F18000128C1D1D6F8743384F8500084F85200CF
:103F2800DC693046217903F0C1FE0D2837D1A26F34
:103F38001C4B9A4233D1E26FA36D9A422FD194F869
:103F48008430002B14BF022000207CE7E17900F0C8
:103F5800A8FD08B907237FE704289BD10B237BE73B
:103F6800A17900F09EFD054680B96179304603F0DD
:103F780001FFC0F101026179D2B2304603F0EBFED5
:103F88002A462179304603F0E6FE87E70428E4E76D
:103F9800FFF7F4FE00287FF456AF012349E702201B
:103FA80051E700BF55534253D0F8743370B5DC69FC
:103FB80094F85250012D03D0022D17D0022070BD65
:103FC80000260A2384F86230E66584F860601022CF
:103FD800314604F1630004F0ADF8022384F863600D
:103FE80084F8505084F85230284670BDBDE87040BF
:103FF800FFF7ECBED0F8743370B5DC6994F8525012
:10400800012D164603D0022D1CD0012070BD0823B7
:10401800E365802384F860300A2384F86230102234
:10402800002104F1630004F085F8252384F8633047
:10403800022384F8523004F1100384F85050C4F875
:104048008C30E2E7FFF7C2FE0028DFD1D4F88C10ED
:104058004B788A781B0443EA0223CA7813430A7808
:1040680043EA026333608A79CB7943EA0223B38057
:1040780070BDF8B5D0F87433DC6994F85250012D4E
:104088000F46164603D0022D27D0022523E08023B1
:1040980084F860300A2384F862300023C4F867305B
:1040A800A4F86B3084F8653084F8663084F868309A
:1040B8000223242212217F0184F8523004F11003D4
:1040C800E26584F8631084F8647084F8672084F8E3
:1040D8005050C4F88C302846F8BDFFF777FE0546E7
:1040E8000028F8D101462222304604F023F8D4F8FB
:1040F8008C301B7803F01F037370D4F88C301B7856
:104108005B093370D4F88C305B78DB09B370D4F872
:104118008C2052F8083FC6F803305368C6F80730B9
:10412800D4F88C30103306F10C0203F1100153F867
:10413800040B42F8040B8B42F9D1D4F88C301B6A7B
:10414800C6F81D30C7E7F8B5D0F87433DC6994F8C1
:104158005250012D0F46164603D0022D29D00220B9
:10416800F8BD80230E2684F860300A2384F8623074
:10417800E6651022002104F1630003F0DBFF03234E
:1041880084F8633000237F0184F8653084F8663052
:1041980084F86830022384F8523084F8647004F19B
:1041A800100384F8676084F85050C4F88C302846AF
:1041B800F8BDFFF70BFE0028D2D1D4F88C309B78DD
:1041C80003F00F033370D4F88C301B7B7370D4F872
:1041D8008C305B7BB370F8BD73B51E46D0F8743372
:1041E8000192DC6994F85250012D03D0022D34D08D
:1041F800022030E0069A0A2352020021E26584F880
:10420800623084F86010102204F1630003F092FF1A
:104218002A2384F863309DF8073084F865309DF8C8
:10422800063084F866309DF8053084F867309DF8CC
:10423800043084F868309DF8193084F86A309DF8A5
:10424800183084F86B30022384F8505084F85230C8
:10425800C4F88C60284602B070BDFFF7B7FDFAE7D6
:1042680073B51E46D0F874330192DC6994F8525045
:10427800012D03D0022D35D0022031E0069A80238B
:10428800520284F860300A23E26584F86230102212
:10429800002104F1630003F04DFF282384F8633004
:1042A8009DF8073084F865309DF8063084F866304C
:1042B8009DF8053084F867309DF8043084F868303C
:1042C8009DF8193084F86A309DF8183084F86B30FE
:1042D800022384F8505084F85230C4F88C60284681
:1042E80002B070BDFFF772FDFAE700F55F7300F5E5
:1042F8006E72002143F8041B9342FBD100F58E72C5
:1043080000F54771002302F8013B9142FBD10122DD
:104318004021037043708270C0F8B833027681710F
:10432800437680F81C3380F81D230020704738B589
:104338000D46044680B1002380F8BC23C0F87433CE
:10434800C0F87833FFF7D1FF0DB1C4F8C453204645
:1043580003F048FC002038BD022038BD49B1D0F830
:10436800783333B90122C0F87823C0F8701318469F
:1043780070470220704790F836338B4286BF80F82A
:104388001F1300200220704730B5002490F84153D5
:104398008D4201D0FF290DD190F84253954201D0AA
:1043A800FF2A07D190F843539D4201D1E0B230BDB6
:1043B800FF2BFBD00134022C00F11A00E6D1FF20BC
:1043C80030BD10B5044603F039FC0121204603F046
:1043D800B5FC002010BD30B587B002238DF817302A
:1043E800037804460A2B17D8DFE813F00B001600F1
:1043F8001900010116004900E900B800C100CA000F
:10440800F90090F81E333BB101230370C82003F074
:10441800BFFC204603F03CFC002007B030BD642000
:1044280003F0B6FC204603F025FC0523237084F82E
:104438001D030021204600F0B5FB80216071204655
:1044480000F0B0FBA27994F81C3320710146029267
:10445800002594F81D23009201958022204600F043
:104468008DFBA279029294F81D23009294F81C33D4
:10447800617901952A46204600F080FBCCE7437815
:10448800072BC9D8DFE803F004141C2D343C485529
:10449800082100F0D3F905460028BDD1012394F87E
:1044A80027236370217994F81C33A2710292D0E714
:1044B800122100F0C3F90028AED102236370ABE7E4
:1044C800012100F0D2FA05460028A5D1022003F008
:1044D8005FFC03220123627084F81C332179A279DE
:1044E800E4E7092100F003FA002895D10423E5E761
:1044F800B0F8341300F0FBF900288DD10523DDE76F
:1045080090F82E1331B1FF2300F58E7200F086FA71
:10451800002881D10623D1E790F82F1339B1FF2362
:1045280000F58E7200F07AFA00287FF475AF072341
:10453800C4E790F8301339B1FF2300F58E7200F00C
:104548006DFA00287FF468AF002384F81F3394F8CD
:104558003133012B09D0072323705DE7D0F8C4332A
:10456800002B3FF459AF012198470823F4E790F84E
:10457800371300F088FA00287FF44EAF0923EBE7E1
:10458800D0F87833002B3FF447AF0023C0F87433DA
:10459800D0F8703390F841231979914208BFC0F8D8
:1045A8007433D0F87433C3B19B689847A8B906230D
:1045B80023700321D4F8C433204698472CE7D0F859
:1045C800743353B11B6998478DF817009DF817305D
:1045D800002B7FF421AF0A23BEE70C23BCE7D0F8F9
:1045E8007433002B3FF418AF5B69984714E7FFF763
:1045F8007CFED4F87433002B3FF40EAFDB68204602
:1046080098470023C4F8743306E7C0F8B813704716
:10461800D0F8B8230132C0F8B82302780A2A04D1A6
:10462800D0F874330BB19B6918477047027808B506
:104638004AB9D0F8C433012280F81E230BB10421F3
:104648009847002008BD0278012A04BF02220270A0
:10465800F7E710B5044603F0FFFA2179204600F089
:10466800B9FA6179204600F0B5FA002384F81E33C0
:10467800D4F8C43313B1052120469847204603F0E7
:10468800DDFA03232370002010BD37B50446807877
:10469800012803D0022808D0012004E00223A160E9
:1046A800A2812076A37003B030BD237E013B0A2B84
:1046B800F2D8DFE803F0060F26313D4A606B7C89AB
:1046C8009200627904F11001204600F0F8F9022303
:1046D8002376E1E76179204603F02CFB012823D1FA
:1046E800E28A94F9103032B1002B02DA03232376E0
:1046F800D9E70523ECE7002B01DA0923E8E70723CC
:10470800E6E7D4F8B833E381A2892379A168204683
:1047180000F0FDF90423DBE72179204603F00AFBCA
:104728000128EAD005281AD00428B5D10B23CFE7F1
:1047380001256379A2890095A168204600F0D0F987
:10474800D4F8B833E3810623C2E76179204603F041
:10475800F1FA0128D3D0052803D10C2323760320AE
:10476800A1E70228C5D0042896D10B23237601237C
:10477800A370022097E7002223791146204600F013
:10478800C6F9D4F8B833E3810823A1E72179204694
:1047980003F0D0FA012804D101230020A370207669
:1047A80081E70428C2D005287FF476AFD7E7002236
:1047B8000125637900951146204600F091F9D4F857
:1047C800B833E3810A2383E76179204603F0B2FA1C
:1047D8000128E1D00228A7D18FE7637E0133DBB23D
:1047E800022B637606D8204603F036FA012020769D
:1047F800A07058E7D4F8C433062120469847002310
:104808006376B4E730B48478BDF80850012C10D131
:1048180061F07F04047402F47F44B4F5407F42825F
:104828004FF006010CBF40F2094200224174828217
:10483800C5822A46194630BCFFF727BF37B500F5B1
:104848008E730D4600914FF4807200210446FFF7E5
:10485800D9FF002849D194F81C3184F8203394F802
:104868001D3184F8213394F81F2194F81E3103EB8D
:104878000223A4F8223394F8203184F8243394F8DE
:10488800213184F8253394F8223184F82633082D11
:1048980094F8233184F8273327D994F8252194F8FC
:1048A800243103EB0223A4F8283394F8272194F841
:1048B800263103EB0223A4F82A3394F8292194F82B
:1048C800283103EB0223A4F82C3394F82A3184F816
:1048D8002E3394F82B3184F82F3394F82C3184F844
:1048E800303394F82D3184F8313303B030BD2DE9DD
:1048F800F34700F11C050F4600912B464FF4007258
:1049080000210446FFF77EFF68BB237F84F832331B
:10491800637F84F83333A67FE37F06EB032694F89E
:10492800203084F8363394F8213084F8373394F8FB
:10493800223084F8383394F8233084F83933B6B207
:1049480094F82430A4F83463092F84F83A330AD948
:1049580022462B46864609214FF01A08BEF1020F5F
:1049680001D08E4202D802B0BDE8F0871D782B44F2
:1049780029445D78042D89B2F0D11D7882F83C5322
:104988005D7882F83D539D7882F83E53DD7882F851
:104998003F531D7982F840535D7982F841539D79E0
:1049A80082F84253DD7982F843531D7A82F84453E2
:1049B80008FB0EF9002592F84073BD4203DB0EF1A7
:1049C800010E1A32CAE78E42F9D91F783B4439449E
:1049D8005F78052F89B2EED16F1C09EBC705254416
:1049E80093F800C085F83EC393F801C085F83FC32B
:1049F80093F802C085F840C393F803C085F841C313
:104A080093F805A093F804C00CEB0A2CA5F842C350
:104A180093F806C085F844C37DB2CCE7F7B500F536
:104A28008E7514461F46009341F440722B460021B0
:104A38000646FFF7E7FE78B996F81D31032B0BD130
:104A480096F81C31023BBB42A8BF3B469BB20246CC
:104A5800934203D80023237003B0F0BDA918023293
:104A6800897804F8011B92B2F2E78378012B06D10A
:104A7800002305220374427441828382C382002288
:104A88001146FFF702BE8378012B06D100230922C5
:104A98000374427441828382C38200221146FFF765
:104AA800F4BD8378012B06D10222437400230274DB
:104AB80043828182C38200221146FFF7E6BD30B5EA
:104AC80085B00024154608230293019103940094AD
:104AD80023462246294603F013F9204605B030BD87
:104AE80030B590F81D5385B0002D1C469DF8203038
:104AF800029218BF0023039301230093002301911E
:104B08001A46214603F0FCF8002005B030BD30B548
:104B180085B000241D46029201220191039400925F
:104B28002346294603F0ECF8204605B030BD30B5E1
:104B380090F81D5385B0002D1C469DF82030029238
:104B480018BF00230393012301910093002202233D
:104B5800214603F0D5F8002005B030BD30B585B04A
:104B68001D4600240292012201910394009202231F
:104B7800294603F0C5F8204605B030BD1FB5BDF87D
:104B8800204002949DF81C4001949DF81840009420
:104B980003F090F8002004B010BD08B503F0A2F8A7
:104BA800002008BD30B5002300F55F7454F8045B9D
:104BB8002D04DAB208D400EB830041F4004192B22C
:104BC800C0F87C13D0B230BD01330B2BEED14FF6B9
:104BD800FF72F7E70A299FBF00EB8100D0F87C330A
:104BE800C3F30E03C0F87C3300207047034B1A1838
:104BF80003EB8003107A5B685B6818472C01002080
:104C0800064B1A5C42B901221A541A1803EB8003A6
:104C1800107A5B681B681847002070472C01002039
:104C280030B4054C251804EB800460688468287A41
:104C3800A44630BC604700BF2C01002030B4054CAE
:104C4800251804EB80046068C468287AA44630BC40
:104C5800604700BF2C010020054B10B41C1803EB63
:104C68008003207A5B685DF8044B1B69184700BF16
:104C78002C01002042884378007843EA022340EA66
:104C8800032070470B0A017043700B0C090E8370E8
:104C9800C1707047024400F8011B9042FBD1704775
:104CA800154BF0B500252A461C461E68A6B10768B4
:104CB800BE4212D15F688668B7420ED19F684669C6
:104CC800B7420AD1B1B904EB02129389B3F5807FD8
:104CD80014BF00201020F0BD01250132022A03F183
:104CE8001003E2D10DB10020F0BD02290CBF002055
:104CF8001220F0BD1020F0BD080100201C4AF0B5BC
:104D08000568002316461468AC4207D157688468C2
:104D1800A74203D197684469A7421DD00133022BEB
:104D280002F11002EFD1336813B13369EBB90123F3
:104D38001C01321935518468406990600020546024
:104D4800908179B906EB03129289013292B206EB8F
:104D58000316581CB281F0BD0029F3D006EB0312EC
:104D6800928912B94FF48072F1E70020F0BD00BFBC
:104D780008010020013801280ED8094A0301D1187A
:104D8800898921F4807080B208B1481E80B2D11898
:104D9800888118B9D05070470220704700207047AA
:104DA80008010020C3690239023B99423DBF43898B
:104DB800006B01FB030000207047C26A10B504684D
:104DC8000432A389B1FBF3F16389B1FBF3F11068F5
:104DD80030B1814202D3091A0832F8E75068084412
:104DE80010BD024600F10B010020C30143EA500345
:104DF80012F8010B50FA83F38A42D8B2F5D1704702
:104E0800026810B552B111460B4611F8014B1F2C20
:104E18000CD93A2CF8D1511C8B4202D04FF0FF30FC
:104E280010BD1278302AF9D101330360002010BD7B
:104E380038B50D46044618B900232B60092038BD43
:104E48000368002BF8D01A78002AF5D0D988828810
:104E58009142F1D15878FFF7C9FE10F00100EBD16B
:104E680023682B6038BD01380A4411F8013B00F86B
:104E7800013F9142F9D17047CA7E8B7E032843EAED
:104E8800022301BF487D0A7D42EA002243EA024329
:104E980018467047C2F307238A76CB760378032B2C
:104EA80001BF120C0A75120A4A757047F8B5456BAE
:104EB80000F13807044601232A4639464078FFF7AF
:104EC800BDFEA0B9A36A226AE070EB1A934201D32F
:104ED8000020F8BDA678012EFAD9236A60781D440F
:104EE8002A4601233946FFF7A9FE013EF3E70120D0
:104EF800F8BDC3780BB1FFF7D9BF18467047F8B5AE
:104F08000446FFF7F6FF0546002841D12378032B16
:104F180036D12779012F33D104F138060146A28909
:104F28003046FFF7B7FE552384F83632AA2384F8B3
:104F3800373252234122722184F8383084F83930CC
:104F4800612384F83A3084F83B2084F81E2284F8E0
:104F58001F3284F81C1284F81D1204F50870A16928
:104F6800FFF790FE616904F50970FFF78BFE626A2E
:104F78006078013262633B463146FFF75FFE257178
:104F8800002211466078FFF767FE003018BF012045
:104F9800F8BD436B8B4270B506460D4612D0FFF73D
:104FA800A8FF044660B92A46012306F13801707843
:104FB800FFF736FE00281CBF4FF0FF35012475634C
:104FC800204670BD0024FBE7002310B5C3704FF0E6
:104FD800FF3343630446FFF7DCFF30BB94F8372206
:104FE80094F8363243EA02234AF6552293421ED1F8
:104FF80094F83830E92B05D0A36B104A03F0FF135F
:10500800934216D104F16E00FFF734FE0C4B20F0EA
:105018007F4098420FD004F18A00FFF72BFE094B1E
:10502800984214BF0220002010BD042010BD0320A8
:1050380010BD022010BD002010BD00BFEB00900085
:1050480046415400464154332DE9F04F002385B0C2
:105058000B600F461546FFF7D3FE061EC0F25E81B1
:10506800B24B53F82640002C00F05A813C6023785C
:1050780005F0FE0573B16078FFF7B8FDC10709D4E4
:10508800002D00F04F8110F0040000D00A2005B078
:10509800BDE8F08F0023F0B223706070FFF7B0FD19
:1050A800C20700F141810DB14307EFD404F10C02AE
:1050B80002216078FFF7D0FD08B10120E7E7A38956
:1050C800A3F50072B2F5606FF7D85E1E1E40F4D1EA
:1050D80031462046FFF778FF022840F0018104F5A9
:1050E800FF7111F8040C10B10846FFF7C3FD4DF825
:1050F80026000136042E01F11001F2D100255DF8D9
:105108002560002E00F0E48031462046FFF75CFF62
:10511800012800F2DE8094F8442094F84330B4F873
:105128000C8043EA0223984540F0E08094F84F3021
:1051380094F84E1051EA032104D104F15C00FFF702
:1051480099FD014694F8487021627B1E012BA770D7
:1051580000F2CC8094F845901FFA89F34F4363819D
:10516800002B00F0C38009F1FF3313EA090F40F068
:10517800BD8094F84A3094F849A04AEA032A4FEAD5
:105188005813BAFBF3FB03FB1BA39BB2A4F808A0BC
:10519800002B40F0AB8094F84C5094F84B0050EA48
:1051A800052003D104F15800FFF764FD94F8473057
:1051B80094F8462052EA032200F0988012FA8BF302
:1051C8003B449842C0F09280C51AB5FBF9F5002D12
:1051D80000F08C804FF6F570854200F2898040F629
:1051E800F5794D458CBF4FF002094FF001090235A2
:1051F80032443344B9F1030FE5616662A262236366
:1052080079D194F8632094F8623053EA02236DD17F
:10521800BAF1000F6AD104F16400FFF72BFDAD006D
:10522800E06208F1FF331D44B5FBF8F841455DD352
:105238004FF0FF33A3616361B9F1030F4FF08003AF
:1052480023712FD194F8692094F8683043EA022337
:10525800012B27D1711C2046FFF79BFE10BB94F849
:10526800372294F83632207143EA02234AF655224F
:10527800934217D104F13800FFF7FCFC2C4B9842FD
:1052880010D104F50770FFF7F5FC2A4B984209D1B5
:1052980004F50870FFF7EEFCA06104F50970FFF74C
:1052A800E9FC6061244A84F80090138801339BB2BA
:1052B8001380E380214B1A68944204BF00221A60CD
:1052C8001A6994424FF000007FF4E1AE1861DEE6FF
:1052D80003200135042D7FF412AF042806D1ECE633
:1052E80004283FF4EAAE01287FF615AF0D20CEE67C
:1052F8004FF003097BE7BAF1000FF7D0B9F1020FBD
:105308004FEA450018BF40193A4418BF05F0010597
:10531800E2620CBF054605EB500582E70B20B6E6B6
:105328000C20B4E62846B2E60320B0E604010020CB
:105338005252614172724161280100200801002027
:1053480001292DE9F04704460D46174640F28A80A8
:10535800C369994280F086800378022B49D0032BD9
:1053680060D0012B7ED101EB510A816A8389BAFB97
:10537800F3F31944FFF70DFE064678BBA389BAFB81
:10538800F3F204F1380803FB12A215F001051FBF60
:1053980018F8023003F00F013B0103F0F00314BFCB
:1053A8000B43FBB208F80230A16A0123E3700AF14B
:1053B8000109A389B9FBF3F320461944FFF7E9FD76
:1053C800064658B9A389B9FBF3F203FB129245B11B
:1053D800C7F3071708F802700123E3703046BDE8E9
:1053E800F08718F80230C7F3032723F00F031F4391
:1053F800F0E783895B08B1FBF3F3816A1944FFF78F
:10540800C8FD06460028E9D1A1896D0004F13802DB
:10541800B5FBF1F301FB135553195755C7F307278C
:105428005F70D9E783899B08B1FBF3F3816A19445C
:10543800FFF7AFFD06460028D0D1A189AD0004F1E1
:105448003803B5FBF1F201FB12551D442846FFF75E
:1054580011FC27F0704700F0704139432846FFF7E8
:1054680011FCB9E70226B9E70129F8B504460E464A
:1054780068D9C369994265D20378022B32D0032BCD
:1054880048D0012B5ED101EB5105816A8389B5FBB8
:10549800F3F31944FFF77DFD10B14FF0FF30F8BD6D
:1054A800A189A36AB5FBF1F201FB125222446F1CD9
:1054B8002046B7FBF1F1194492F83850FFF769FD1F
:1054C8000028EAD1A289B7FBF2F302FB13731C444C
:1054D800F30794F8380045EA00204CBF0009C0F3F0
:1054E8000B00F8BD83895B08B1FBF3F3816A1944AB
:1054F800FFF74FFD0028D0D1A189760004F13802CA
:10550800B6FBF1F301FB13669319905D5B7840EAF3
:105518000320F8BD83899B08B1FBF3F3816A194422
:10552800FFF737FD0028B8D1A289B60004F138008A
:10553800B6FBF2F302FB13663044FFF79BFB20F047
:105548007040F8BD0120F8BDB1F5001FF8B505465B
:105558000E4601D30220F8BDCA06FBD18268046852
:105568006961D2B92378022B01D9E36AB3B92389D7
:10557800B3EB561FEED9E36AEB61AA61EA69002A28
:10558800E8D0A189B6FBF1F3383401FB13661A445D
:105598003444EA612C620020F8BD13466289A78969
:1055A80057431A46BE42114604D22046FFF7FAFB7B
:1055B800E861E2E72868FFF757FF431C024606D078
:1055C8000128C7D9E3699842C4D2F61BEAE701204B
:1055D800F8BD2DE9F041804605680F4671B96E693E
:1055E800F6B1EB699E4228BF01263446EB690134C7
:1055F8009C4218D3012E15D8002409E02846FFF74D
:1056080033FF0128044637D9431C04D14FF0FF3437
:105618002046BDE8F081EB699842F9D33E46E4E7BD
:105628000126E2E702242146D8F80000FFF71CFF14
:1056380030B1012820D00130E8D0B442D6D1DBE720
:105648004FF0FF3221462846FFF77AFE90B957B946
:10565800EA69AB696C61023A93420FD92B7943F03E
:1056680001032B71D4E7224639462846FFF768FE26
:105678000028EDD00128C9D00124C9E7013BAB615E
:10568800ECE7F8B50D46012D0746114601D8022072
:10569800F8BD0468E3699D42F9D22AB14FF0FF32A0
:1056A8002046FFF74DFE08BB29463868FFF7DCFEA9
:1056B800064608B90020F8BD0128E8D0431C14D0DC
:1056C800002229462046FFF73BFE78B9E269A36924
:1056D800911E8B4205D20133A361237943F0010364
:1056E800237196423546DFD3E4E70120F8BD2DE962
:1056F800F843C36905468846B3B147692037B7F50B
:10570800001F11D20468A289B7FBF2F002FB1072E5
:10571800002A4FD1A9690133EB6141B92389B3EB61
:10572800571F47D80023EB610420BDE8F88363893D
:10573800013B03423ED12046FFF796FE012806466C
:1057480002D80220BDE8F883421C02D10120BDE83E
:10575800F883E369984227D3B8F1000FE2D0A9692A
:105768002846FFF736FF064600283DD00128E8D036
:10577800431CEBD02046FFF7BCFB80460028E5D150
:105788000146A28904F13800FFF784FA3146204621
:10579800FFF708FB4FF0010960636389984516D34A
:1057A800636BA3EB08036363AE6131462046FFF7E2
:1057B800F9FAE861A1896F6104F13803B7FBF1F2E6
:1057C80001FB12771F442F620020BDE8F88384F89C
:1057D80003902046FFF76AFB0028B7D1636B0133BB
:1057E80008F101086363D8E70720BDE8F883016B77
:1057F8004B1C2DE9F04104460568466918D1E52798
:105808004FF00108E1692846FFF7C3FB60B9236A36
:105818001F7085F8038063699E420DD901462046B2
:10582800FFF765FF0028EDD0042808BF022003E039
:10583800FFF78AFE0028E2D0BDE8F0812DE9F04F9D
:10584800002185B00546D0F800A0FFF77DFE804610
:10585800002840F09E804FF0FF334FF0FF092B6384
:105868004E46E9695046FFF794FB8046002840F011
:1058780090802C6A2778002F00F09180E27AE52F3B
:1058880002F03F03AB7103D0120705D50F2B05D0EB
:105898004FF0FF332B6357E00F2B5ED195F82F3075
:1058A800580652D4790647D56A69637B2A6307F09C
:1058B800BF0794F80D9099456FD1E37EA67E46EA1E
:1058C800032636B2002E3FD194F80080DAF810B0E3
:1058D80008F03F0808F1FF334FF00D0808FB03F804
:1058E8000121304BF25CA3185878A35C43EA0023EB
:1058F80031B3B8F1FE0F27D81846039300F0F4FF30
:1059080008F1010202903BF81800019200F0ECFF48
:105918000299814218D1039B019A19469046013693
:105928000D2EDED123785A0603D511B13BF8183075
:1059380053B9013FFEB208E0BE4205D14B46B8E775
:105948004FF6FF729342EAD0FF2600212846FFF760
:10595800CEFE8046002884D01BE026B92046FFF7FB
:1059680040FA814515D095F82F30DB0790D404F123
:105978000B0105F1240214F8013B12F8010B8C42CB
:10598800A3EB000302D0002BF5D081E7002B7FF4B6
:105998007FAF404605B0BDE8F08F9946D4E74FF099
:1059A8000408F6E7888300082DE9F04F90F82F40A7
:1059B80014F0A00489B0054640F084800668326976
:1059C80032F81430002B55D105F124070C22394642
:1059D80005A8FFF748FA9DF81F30DB077BD5402361
:1059E800DFF82C8285F82F304FF001090B2205A92A
:1059F8003846D6F810A0FFF736FAB9F1050F4ED899
:105A08004B46072203F00F0000F13001392988BF07
:105A180000F13701013A03A810441B094170F1D184
:105A280008A911447E2001F8140C9A423DD0F95C73
:105A3800202938D13B44072A9BBF08A9891820216F
:105A480011F8141C03F8011BA3EB070198BF0132DE
:105A58000729F0D92846FFF7F1FE8246A8BB09F1CD
:105A68000109B9F1640FC1D14FF0070A504609B0D6
:105A7800BDE8F08F0134A3E7102002F0010E0EEB11
:105A8800430313F4803F18BF83EA080301384FEA41
:105A98005202F2D131F8022F002AEDD1B1E7AAF172
:105AA80002014B46F6E70133BFE71346C2E78046DB
:105AB80001212846FFF71BFE824610B3BAF1040FF6
:105AC800D2D0D3E74FF0060AD0E70428CED19DF80C
